{
  "contractName": "COCOEvents",
  "abi": [
    {
      "inputs": [],
      "stateMutability": "nonpayable",
      "type": "constructor"
    },
    {
      "anonymous": false,
      "inputs": [
        {
          "indexed": true,
          "internalType": "address",
          "name": "owner",
          "type": "address"
        },
        {
          "indexed": true,
          "internalType": "address",
          "name": "approved",
          "type": "address"
        },
        {
          "indexed": true,
          "internalType": "uint256",
          "name": "tokenId",
          "type": "uint256"
        }
      ],
      "name": "Approval",
      "type": "event"
    },
    {
      "anonymous": false,
      "inputs": [
        {
          "indexed": true,
          "internalType": "address",
          "name": "owner",
          "type": "address"
        },
        {
          "indexed": true,
          "internalType": "address",
          "name": "operator",
          "type": "address"
        },
        {
          "indexed": false,
          "internalType": "bool",
          "name": "approved",
          "type": "bool"
        }
      ],
      "name": "ApprovalForAll",
      "type": "event"
    },
    {
      "anonymous": false,
      "inputs": [
        {
          "indexed": false,
          "internalType": "uint256",
          "name": "_eventId",
          "type": "uint256"
        }
      ],
      "name": "EventCreated",
      "type": "event"
    },
    {
      "anonymous": false,
      "inputs": [
        {
          "indexed": true,
          "internalType": "address",
          "name": "previousOwner",
          "type": "address"
        },
        {
          "indexed": true,
          "internalType": "address",
          "name": "newOwner",
          "type": "address"
        }
      ],
      "name": "OwnershipTransferred",
      "type": "event"
    },
    {
      "anonymous": false,
      "inputs": [
        {
          "indexed": false,
          "internalType": "address",
          "name": "account",
          "type": "address"
        }
      ],
      "name": "Paused",
      "type": "event"
    },
    {
      "anonymous": false,
      "inputs": [
        {
          "indexed": false,
          "internalType": "uint256",
          "name": "_ticketId",
          "type": "uint256"
        }
      ],
      "name": "TicketSold",
      "type": "event"
    },
    {
      "anonymous": false,
      "inputs": [
        {
          "indexed": true,
          "internalType": "address",
          "name": "from",
          "type": "address"
        },
        {
          "indexed": true,
          "internalType": "address",
          "name": "to",
          "type": "address"
        },
        {
          "indexed": true,
          "internalType": "uint256",
          "name": "tokenId",
          "type": "uint256"
        }
      ],
      "name": "Transfer",
      "type": "event"
    },
    {
      "anonymous": false,
      "inputs": [
        {
          "indexed": false,
          "internalType": "address",
          "name": "account",
          "type": "address"
        }
      ],
      "name": "Unpaused",
      "type": "event"
    },
    {
      "inputs": [
        {
          "internalType": "address",
          "name": "to",
          "type": "address"
        },
        {
          "internalType": "uint256",
          "name": "tokenId",
          "type": "uint256"
        }
      ],
      "name": "approve",
      "outputs": [],
      "stateMutability": "nonpayable",
      "type": "function"
    },
    {
      "inputs": [
        {
          "internalType": "address",
          "name": "owner",
          "type": "address"
        }
      ],
      "name": "balanceOf",
      "outputs": [
        {
          "internalType": "uint256",
          "name": "",
          "type": "uint256"
        }
      ],
      "stateMutability": "view",
      "type": "function",
      "constant": true
    },
    {
      "inputs": [
        {
          "internalType": "uint256",
          "name": "tokenId",
          "type": "uint256"
        }
      ],
      "name": "getApproved",
      "outputs": [
        {
          "internalType": "address",
          "name": "",
          "type": "address"
        }
      ],
      "stateMutability": "view",
      "type": "function",
      "constant": true
    },
    {
      "inputs": [
        {
          "internalType": "address",
          "name": "owner",
          "type": "address"
        },
        {
          "internalType": "address",
          "name": "operator",
          "type": "address"
        }
      ],
      "name": "isApprovedForAll",
      "outputs": [
        {
          "internalType": "bool",
          "name": "",
          "type": "bool"
        }
      ],
      "stateMutability": "view",
      "type": "function",
      "constant": true
    },
    {
      "inputs": [],
      "name": "name",
      "outputs": [
        {
          "internalType": "string",
          "name": "",
          "type": "string"
        }
      ],
      "stateMutability": "view",
      "type": "function",
      "constant": true
    },
    {
      "inputs": [],
      "name": "owner",
      "outputs": [
        {
          "internalType": "address",
          "name": "",
          "type": "address"
        }
      ],
      "stateMutability": "view",
      "type": "function",
      "constant": true
    },
    {
      "inputs": [
        {
          "internalType": "uint256",
          "name": "tokenId",
          "type": "uint256"
        }
      ],
      "name": "ownerOf",
      "outputs": [
        {
          "internalType": "address",
          "name": "",
          "type": "address"
        }
      ],
      "stateMutability": "view",
      "type": "function",
      "constant": true
    },
    {
      "inputs": [],
      "name": "paused",
      "outputs": [
        {
          "internalType": "bool",
          "name": "",
          "type": "bool"
        }
      ],
      "stateMutability": "view",
      "type": "function",
      "constant": true
    },
    {
      "inputs": [],
      "name": "renounceOwnership",
      "outputs": [],
      "stateMutability": "nonpayable",
      "type": "function"
    },
    {
      "inputs": [
        {
          "internalType": "address",
          "name": "from",
          "type": "address"
        },
        {
          "internalType": "address",
          "name": "to",
          "type": "address"
        },
        {
          "internalType": "uint256",
          "name": "tokenId",
          "type": "uint256"
        }
      ],
      "name": "safeTransferFrom",
      "outputs": [],
      "stateMutability": "nonpayable",
      "type": "function"
    },
    {
      "inputs": [
        {
          "internalType": "address",
          "name": "from",
          "type": "address"
        },
        {
          "internalType": "address",
          "name": "to",
          "type": "address"
        },
        {
          "internalType": "uint256",
          "name": "tokenId",
          "type": "uint256"
        },
        {
          "internalType": "bytes",
          "name": "_data",
          "type": "bytes"
        }
      ],
      "name": "safeTransferFrom",
      "outputs": [],
      "stateMutability": "nonpayable",
      "type": "function"
    },
    {
      "inputs": [
        {
          "internalType": "address",
          "name": "operator",
          "type": "address"
        },
        {
          "internalType": "bool",
          "name": "approved",
          "type": "bool"
        }
      ],
      "name": "setApprovalForAll",
      "outputs": [],
      "stateMutability": "nonpayable",
      "type": "function"
    },
    {
      "inputs": [
        {
          "internalType": "bytes4",
          "name": "interfaceId",
          "type": "bytes4"
        }
      ],
      "name": "supportsInterface",
      "outputs": [
        {
          "internalType": "bool",
          "name": "",
          "type": "bool"
        }
      ],
      "stateMutability": "view",
      "type": "function",
      "constant": true
    },
    {
      "inputs": [],
      "name": "symbol",
      "outputs": [
        {
          "internalType": "string",
          "name": "",
          "type": "string"
        }
      ],
      "stateMutability": "view",
      "type": "function",
      "constant": true
    },
    {
      "inputs": [
        {
          "internalType": "uint256",
          "name": "tokenId",
          "type": "uint256"
        }
      ],
      "name": "tokenURI",
      "outputs": [
        {
          "internalType": "string",
          "name": "",
          "type": "string"
        }
      ],
      "stateMutability": "view",
      "type": "function",
      "constant": true
    },
    {
      "inputs": [
        {
          "internalType": "address",
          "name": "from",
          "type": "address"
        },
        {
          "internalType": "address",
          "name": "to",
          "type": "address"
        },
        {
          "internalType": "uint256",
          "name": "tokenId",
          "type": "uint256"
        }
      ],
      "name": "transferFrom",
      "outputs": [],
      "stateMutability": "nonpayable",
      "type": "function"
    },
    {
      "inputs": [
        {
          "internalType": "address",
          "name": "newOwner",
          "type": "address"
        }
      ],
      "name": "transferOwnership",
      "outputs": [],
      "stateMutability": "nonpayable",
      "type": "function"
    },
    {
      "inputs": [],
      "name": "getAllEvents",
      "outputs": [
        {
          "components": [
            {
              "internalType": "uint256",
              "name": "tokenId",
              "type": "uint256"
            },
            {
              "internalType": "string",
              "name": "name",
              "type": "string"
            },
            {
              "internalType": "string",
              "name": "description",
              "type": "string"
            },
            {
              "internalType": "string",
              "name": "coverImage",
              "type": "string"
            },
            {
              "internalType": "uint256",
              "name": "ticketSupply",
              "type": "uint256"
            },
            {
              "internalType": "uint256",
              "name": "ticketPrice",
              "type": "uint256"
            },
            {
              "internalType": "address",
              "name": "owner",
              "type": "address"
            }
          ],
          "internalType": "struct COCOEvents.Event[]",
          "name": "",
          "type": "tuple[]"
        }
      ],
      "stateMutability": "view",
      "type": "function",
      "constant": true
    },
    {
      "inputs": [
        {
          "components": [
            {
              "internalType": "uint256",
              "name": "tokenId",
              "type": "uint256"
            },
            {
              "internalType": "string",
              "name": "name",
              "type": "string"
            },
            {
              "internalType": "string",
              "name": "description",
              "type": "string"
            },
            {
              "internalType": "string",
              "name": "coverImage",
              "type": "string"
            },
            {
              "internalType": "uint256",
              "name": "ticketSupply",
              "type": "uint256"
            },
            {
              "internalType": "uint256",
              "name": "ticketPrice",
              "type": "uint256"
            },
            {
              "internalType": "address",
              "name": "owner",
              "type": "address"
            }
          ],
          "internalType": "struct COCOEvents.Event",
          "name": "_event",
          "type": "tuple"
        }
      ],
      "name": "createEvent",
      "outputs": [
        {
          "internalType": "uint256",
          "name": "",
          "type": "uint256"
        }
      ],
      "stateMutability": "nonpayable",
      "type": "function"
    },
    {
      "inputs": [
        {
          "internalType": "uint256",
          "name": "_eventId",
          "type": "uint256"
        },
        {
          "internalType": "uint256",
          "name": "_ticketNumber",
          "type": "uint256"
        }
      ],
      "name": "buyTicket",
      "outputs": [
        {
          "internalType": "uint256",
          "name": "",
          "type": "uint256"
        }
      ],
      "stateMutability": "payable",
      "type": "function",
      "payable": true
    },
    {
      "inputs": [
        {
          "internalType": "uint256",
          "name": "_eventId",
          "type": "uint256"
        }
      ],
      "name": "getAllTicketsByEvent",
      "outputs": [
        {
          "components": [
            {
              "internalType": "uint256",
              "name": "tokenId",
              "type": "uint256"
            },
            {
              "internalType": "uint256",
              "name": "ticketPrice",
              "type": "uint256"
            },
            {
              "internalType": "bool",
              "name": "ticketUsed",
              "type": "bool"
            },
            {
              "internalType": "uint256",
              "name": "ticketNumber",
              "type": "uint256"
            },
            {
              "internalType": "address",
              "name": "owner",
              "type": "address"
            },
            {
              "components": [
                {
                  "internalType": "uint256",
                  "name": "tokenId",
                  "type": "uint256"
                },
                {
                  "internalType": "string",
                  "name": "name",
                  "type": "string"
                },
                {
                  "internalType": "string",
                  "name": "description",
                  "type": "string"
                },
                {
                  "internalType": "string",
                  "name": "coverImage",
                  "type": "string"
                },
                {
                  "internalType": "uint256",
                  "name": "ticketSupply",
                  "type": "uint256"
                },
                {
                  "internalType": "uint256",
                  "name": "ticketPrice",
                  "type": "uint256"
                },
                {
                  "internalType": "address",
                  "name": "owner",
                  "type": "address"
                }
              ],
              "internalType": "struct COCOEvents.Event",
              "name": "parentEvent",
              "type": "tuple"
            }
          ],
          "internalType": "struct COCOEvents.Ticket[]",
          "name": "",
          "type": "tuple[]"
        }
      ],
      "stateMutability": "view",
      "type": "function",
      "constant": true
    },
    {
      "inputs": [],
      "name": "getMyTickets",
      "outputs": [
        {
          "components": [
            {
              "internalType": "uint256",
              "name": "tokenId",
              "type": "uint256"
            },
            {
              "internalType": "uint256",
              "name": "ticketPrice",
              "type": "uint256"
            },
            {
              "internalType": "bool",
              "name": "ticketUsed",
              "type": "bool"
            },
            {
              "internalType": "uint256",
              "name": "ticketNumber",
              "type": "uint256"
            },
            {
              "internalType": "address",
              "name": "owner",
              "type": "address"
            },
            {
              "components": [
                {
                  "internalType": "uint256",
                  "name": "tokenId",
                  "type": "uint256"
                },
                {
                  "internalType": "string",
                  "name": "name",
                  "type": "string"
                },
                {
                  "internalType": "string",
                  "name": "description",
                  "type": "string"
                },
                {
                  "internalType": "string",
                  "name": "coverImage",
                  "type": "string"
                },
                {
                  "internalType": "uint256",
                  "name": "ticketSupply",
                  "type": "uint256"
                },
                {
                  "internalType": "uint256",
                  "name": "ticketPrice",
                  "type": "uint256"
                },
                {
                  "internalType": "address",
                  "name": "owner",
                  "type": "address"
                }
              ],
              "internalType": "struct COCOEvents.Event",
              "name": "parentEvent",
              "type": "tuple"
            }
          ],
          "internalType": "struct COCOEvents.Ticket[]",
          "name": "_tickets",
          "type": "tuple[]"
        }
      ],
      "stateMutability": "nonpayable",
      "type": "function"
    }
  ],
  "bytecode": "0x60806040523480156200001157600080fd5b506040518060400160405280600a81526020017f434f434f4576656e7473000000000000000000000000000000000000000000008152506040518060400160405280600481526020017f434f434f00000000000000000000000000000000000000000000000000000000815250816000908051906020019062000096929190620001c1565b508060019080519060200190620000af929190620001c1565b5050506000600660006101000a81548160ff021916908315150217905550620000ed620000e1620000f360201b60201c565b620000fb60201b60201c565b620002d6565b600033905090565b6000600660019054906101000a900473ffffffffffffffffffffffffffffffffffffffff16905081600660016101000a81548173ffffffffffffffffffffffffffffffffffffffff021916908373ffffffffffffffffffffffffffffffffffffffff1602179055508173ffffffffffffffffffffffffffffffffffffffff168173ffffffffffffffffffffffffffffffffffffffff167f8be0079c531659141344cd1fd0a4f28419497f9722a3daafe3b4186f6b6457e060405160405180910390a35050565b828054620001cf9062000271565b90600052602060002090601f016020900481019282620001f357600085556200023f565b82601f106200020e57805160ff19168380011785556200023f565b828001600101855582156200023f579182015b828111156200023e57825182559160200191906001019062000221565b5b5090506200024e919062000252565b5090565b5b808211156200026d57600081600090555060010162000253565b5090565b600060028204905060018216806200028a57607f821691505b60208210811415620002a157620002a0620002a7565b5b50919050565b7f4e487b7100000000000000000000000000000000000000000000000000000000600052602260045260246000fd5b6157bc80620002e66000396000f3fe6080604052600436106101355760003560e01c806370a08231116100ab578063b88d4fde1161006f578063b88d4fde1461043f578063c27a500d14610468578063c87b56dd14610493578063e1d10d85146104d0578063e985e9c5146104fb578063f2fde38b1461053857610135565b806370a082311461036c578063715018a6146103a95780638da5cb5b146103c057806395d89b41146103eb578063a22cb4651461041657610135565b8063298ec208116100fd578063298ec2081461023157806342842e0e146102615780635636835f1461028a57806356b489ec146102c75780635c975abb146103045780636352211e1461032f57610135565b806301ffc9a71461013a57806306fdde0314610177578063081812fc146101a2578063095ea7b3146101df57806323b872dd14610208575b600080fd5b34801561014657600080fd5b50610161600480360381019061015c9190614182565b610561565b60405161016e9190614a2d565b60405180910390f35b34801561018357600080fd5b5061018c610643565b6040516101999190614a48565b60405180910390f35b3480156101ae57600080fd5b506101c960048036038101906101c49190614215565b6106d5565b6040516101d69190614982565b60405180910390f35b3480156101eb57600080fd5b5061020660048036038101906102019190614146565b61075a565b005b34801561021457600080fd5b5061022f600480360381019061022a9190614040565b610872565b005b61024b6004803603810190610246919061423e565b6108d2565b6040516102589190614d0a565b60405180910390f35b34801561026d57600080fd5b5061028860048036038101906102839190614040565b610c46565b005b34801561029657600080fd5b506102b160048036038101906102ac91906141d4565b610c66565b6040516102be9190614d0a565b60405180910390f35b3480156102d357600080fd5b506102ee60048036038101906102e99190614215565b6110a1565b6040516102fb9190614a0b565b60405180910390f35b34801561031057600080fd5b506103196115a4565b6040516103269190614a2d565b60405180910390f35b34801561033b57600080fd5b5061035660048036038101906103519190614215565b6115bb565b6040516103639190614982565b60405180910390f35b34801561037857600080fd5b50610393600480360381019061038e9190613fdb565b61166d565b6040516103a09190614d0a565b60405180910390f35b3480156103b557600080fd5b506103be611725565b005b3480156103cc57600080fd5b506103d56117ad565b6040516103e29190614982565b60405180910390f35b3480156103f757600080fd5b506104006117d7565b60405161040d9190614a48565b60405180910390f35b34801561042257600080fd5b5061043d6004803603810190610438919061410a565b611869565b005b34801561044b57600080fd5b506104666004803603810190610461919061408f565b61187f565b005b34801561047457600080fd5b5061047d6118e1565b60405161048a91906149e9565b60405180910390f35b34801561049f57600080fd5b506104ba60048036038101906104b59190614215565b611cba565b6040516104c79190614a48565b60405180910390f35b3480156104dc57600080fd5b506104e5611d61565b6040516104f29190614a0b565b60405180910390f35b34801561050757600080fd5b50610522600480360381019061051d9190614004565b6129e7565b60405161052f9190614a2d565b60405180910390f35b34801561054457600080fd5b5061055f600480360381019061055a9190613fdb565b612a7b565b005b60007f80ac58cd000000000000000000000000000000000000000000000000000000007bffffffffffffffffffffffffffffffffffffffffffffffffffffffff1916827bffffffffffffffffffffffffffffffffffffffffffffffffffffffff1916148061062c57507f5b5e139f000000000000000000000000000000000000000000000000000000007bffffffffffffffffffffffffffffffffffffffffffffffffffffffff1916827bffffffffffffffffffffffffffffffffffffffffffffffffffffffff1916145b8061063c575061063b82612b73565b5b9050919050565b60606000805461065290614fe3565b80601f016020809104026020016040519081016040528092919081815260200182805461067e90614fe3565b80156106cb5780601f106106a0576101008083540402835291602001916106cb565b820191906000526020600020905b8154815290600101906020018083116106ae57829003601f168201915b5050505050905090565b60006106e082612bdd565b61071f576040517f08c379a000000000000000000000000000000000000000000000000000000000815260040161071690614c4a565b60405180910390fd5b6004600083815260200190815260200160002060009054906101000a900473ffffffffffffffffffffffffffffffffffffffff169050919050565b6000610765826115bb565b90508073ffffffffffffffffffffffffffffffffffffffff168373ffffffffffffffffffffffffffffffffffffffff1614156107d6576040517f08c379a00000000000000000000000000000000000000000000000000000000081526004016107cd90614caa565b60405180910390fd5b8073ffffffffffffffffffffffffffffffffffffffff166107f5612c49565b73ffffffffffffffffffffffffffffffffffffffff16148061082457506108238161081e612c49565b6129e7565b5b610863576040517f08c379a000000000000000000000000000000000000000000000000000000000815260040161085a90614bca565b60405180910390fd5b61086d8383612c51565b505050565b61088361087d612c49565b82612d0a565b6108c2576040517f08c379a00000000000000000000000000000000000000000000000000000000081526004016108b990614cea565b60405180910390fd5b6108cd838383612de8565b505050565b60006108dc6115a4565b1561091c576040517f08c379a000000000000000000000000000000000000000000000000000000000815260040161091390614baa565b60405180910390fd5b82600060076000838152602001908152602001600020600101805461094090614fe3565b905011610982576040517f08c379a000000000000000000000000000000000000000000000000000000000815260040161097990614cca565b60405180910390fd5b8383600080600a60008581526020019081526020016000208054806020026020016040519081016040528092919081815260200182805480156109e457602002820191906000526020600020905b8154815260200190600101908083116109d0575b50505050509050600081511115610a8a5760005b8151811015610a885783600860008781526020019081526020016000206000848481518110610a50577f4e487b7100000000000000000000000000000000000000000000000000000000600052603260045260246000fd5b60200260200101518152602001908152602001600020600301541415610a7557600192505b8080610a8090615046565b9150506109f8565b505b6000151582151514610ad1576040517f08c379a0000000000000000000000000000000000000000000000000000000008152600401610ac890614b8a565b60405180910390fd5b6000600760008a815260200190815260200160002060050154905080610af561304f565b1015610b36576040517f08c379a0000000000000000000000000000000000000000000000000000000008152600401610b2d90614a6a565b60405180910390fd5b80610b3f61304f565b1115610ba657610b4d612c49565b73ffffffffffffffffffffffffffffffffffffffff166108fc82610b6f61304f565b610b799190614ef9565b9081150290604051600060405180830381858888f19350505050158015610ba4573d6000803e3d6000fd5b505b6000610bb28a8a613057565b9050600a60008b8152602001908152602001600020819080600181540180825580915050600190039060005260206000200160009091909190915055610bff610bf9612c49565b826132c3565b7f8655a05f5eb2d0491323966a6096975abd04936996ac58bd36ddc33d3cb0576d81604051610c2e9190614d0a565b60405180910390a18097505050505050505092915050565b610c618383836040518060200160405280600081525061187f565b505050565b600081602001516040518060400160405280600a81526020017f4576656e74204e616d6500000000000000000000000000000000000000000000815250600082511181604051602001610cb99190614960565b60405160208183030381529060405290610d09576040517f08c379a0000000000000000000000000000000000000000000000000000000008152600401610d009190614a48565b60405180910390fd5b5083604001516040518060400160405280601181526020017f4576656e74204465736372697074696f6e000000000000000000000000000000815250600082511181604051602001610d5b9190614960565b60405160208183030381529060405290610dab576040517f08c379a0000000000000000000000000000000000000000000000000000000008152600401610da29190614a48565b60405180910390fd5b5085608001516040518060400160405280600d81526020017f5469636b657420537570706c79000000000000000000000000000000000000008152506000821181604051602001610dfc919061493e565b60405160208183030381529060405290610e4c576040517f08c379a0000000000000000000000000000000000000000000000000000000008152600401610e439190614a48565b60405180910390fd5b508760a001516040518060400160405280600c81526020017f5469636b657420507269636500000000000000000000000000000000000000008152506000821181604051602001610e9d919061493e565b60405160208183030381529060405290610eed576040517f08c379a0000000000000000000000000000000000000000000000000000000008152600401610ee49190614a48565b60405180910390fd5b506000600b60008154610eff90615046565b91905081905590506000818c6000018181525050808c60c0019073ffffffffffffffffffffffffffffffffffffffff16908173ffffffffffffffffffffffffffffffffffffffff16815250508b60076000848152602001908152602001600020600082015181600001556020820151816001019080519060200190610f85929190613b1c565b506040820151816002019080519060200190610fa2929190613b1c565b506060820151816003019080519060200190610fbf929190613b1c565b506080820151816004015560a0820151816005015560c08201518160060160006101000a81548173ffffffffffffffffffffffffffffffffffffffff021916908373ffffffffffffffffffffffffffffffffffffffff1602179055509050506009829080600181540180825580915050600190039060005260206000200160009091909190915055611058611052612c49565b836132c3565b7f748ff5cfd7b66bdd8e21581c2a864756fe7085378c0003183e579bfafba28325826040516110879190614d0a565b60405180910390a1819a5050505050505050505050919050565b60608160006007600083815260200190815260200160002060010180546110c790614fe3565b905011611109576040517f08c379a000000000000000000000000000000000000000000000000000000000815260040161110090614cca565b60405180910390fd5b6000600a600085815260200190815260200160002080548060200260200160405190810160405280929190818152602001828054801561116857602002820191906000526020600020905b815481526020019060010190808311611154575b505050505090506000815167ffffffffffffffff8111156111b2577f4e487b7100000000000000000000000000000000000000000000000000000000600052604160045260246000fd5b6040519080825280602002602001820160405280156111eb57816020015b6111d8613ba2565b8152602001906001900390816111d05790505b5090506000825111156115995760005b825181101561159757600860008781526020019081526020016000206000848381518110611252577f4e487b7100000000000000000000000000000000000000000000000000000000600052603260045260246000fd5b602002602001015181526020019081526020016000206040518060c001604052908160008201548152602001600182015481526020016002820160009054906101000a900460ff16151515158152602001600382015481526020016004820160009054906101000a900473ffffffffffffffffffffffffffffffffffffffff1673ffffffffffffffffffffffffffffffffffffffff1673ffffffffffffffffffffffffffffffffffffffff168152602001600582016040518060e00160405290816000820154815260200160018201805461132c90614fe3565b80601f016020809104026020016040519081016040528092919081815260200182805461135890614fe3565b80156113a55780601f1061137a576101008083540402835291602001916113a5565b820191906000526020600020905b81548152906001019060200180831161138857829003601f168201915b505050505081526020016002820180546113be90614fe3565b80601f01602080910402602001604051908101604052809291908181526020018280546113ea90614fe3565b80156114375780601f1061140c57610100808354040283529160200191611437565b820191906000526020600020905b81548152906001019060200180831161141a57829003601f168201915b5050505050815260200160038201805461145090614fe3565b80601f016020809104026020016040519081016040528092919081815260200182805461147c90614fe3565b80156114c95780601f1061149e576101008083540402835291602001916114c9565b820191906000526020600020905b8154815290600101906020018083116114ac57829003601f168201915b5050505050815260200160048201548152602001600582015481526020016006820160009054906101000a900473ffffffffffffffffffffffffffffffffffffffff1673ffffffffffffffffffffffffffffffffffffffff1673ffffffffffffffffffffffffffffffffffffffff168152505081525050828281518110611579577f4e487b7100000000000000000000000000000000000000000000000000000000600052603260045260246000fd5b6020026020010181905250808061158f90615046565b9150506111fb565b505b809350505050919050565b6000600660009054906101000a900460ff16905090565b6000806002600084815260200190815260200160002060009054906101000a900473ffffffffffffffffffffffffffffffffffffffff169050600073ffffffffffffffffffffffffffffffffffffffff168173ffffffffffffffffffffffffffffffffffffffff161415611664576040517f08c379a000000000000000000000000000000000000000000000000000000000815260040161165b90614c0a565b60405180910390fd5b80915050919050565b60008073ffffffffffffffffffffffffffffffffffffffff168273ffffffffffffffffffffffffffffffffffffffff1614156116de576040517f08c379a00000000000000000000000000000000000000000000000000000000081526004016116d590614bea565b60405180910390fd5b600360008373ffffffffffffffffffffffffffffffffffffffff1673ffffffffffffffffffffffffffffffffffffffff168152602001908152602001600020549050919050565b61172d612c49565b73ffffffffffffffffffffffffffffffffffffffff1661174b6117ad565b73ffffffffffffffffffffffffffffffffffffffff16146117a1576040517f08c379a000000000000000000000000000000000000000000000000000000000815260040161179890614c6a565b60405180910390fd5b6117ab600061349d565b565b6000600660019054906101000a900473ffffffffffffffffffffffffffffffffffffffff16905090565b6060600180546117e690614fe3565b80601f016020809104026020016040519081016040528092919081815260200182805461181290614fe3565b801561185f5780601f106118345761010080835404028352916020019161185f565b820191906000526020600020905b81548152906001019060200180831161184257829003601f168201915b5050505050905090565b61187b611874612c49565b8383613563565b5050565b61189061188a612c49565b83612d0a565b6118cf576040517f08c379a00000000000000000000000000000000000000000000000000000000081526004016118c690614cea565b60405180910390fd5b6118db848484846136d0565b50505050565b6060600060098054905067ffffffffffffffff81111561192a577f4e487b7100000000000000000000000000000000000000000000000000000000600052604160045260246000fd5b60405190808252806020026020018201604052801561196357816020015b611950613bf6565b8152602001906001900390816119485790505b50905060006009805490501115611cb35760005b600980549050811015611cb157600060076000600984815481106119c4577f4e487b7100000000000000000000000000000000000000000000000000000000600052603260045260246000fd5b906000526020600020015481526020019081526020016000206040518060e001604052908160008201548152602001600182018054611a0290614fe3565b80601f0160208091040260200160405190810160405280929190818152602001828054611a2e90614fe3565b8015611a7b5780601f10611a5057610100808354040283529160200191611a7b565b820191906000526020600020905b815481529060010190602001808311611a5e57829003601f168201915b50505050508152602001600282018054611a9490614fe3565b80601f0160208091040260200160405190810160405280929190818152602001828054611ac090614fe3565b8015611b0d5780601f10611ae257610100808354040283529160200191611b0d565b820191906000526020600020905b815481529060010190602001808311611af057829003601f168201915b50505050508152602001600382018054611b2690614fe3565b80601f0160208091040260200160405190810160405280929190818152602001828054611b5290614fe3565b8015611b9f5780601f10611b7457610100808354040283529160200191611b9f565b820191906000526020600020905b815481529060010190602001808311611b8257829003601f168201915b5050505050815260200160048201548152602001600582015481526020016006820160009054906101000a900473ffffffffffffffffffffffffffffffffffffffff1673ffffffffffffffffffffffffffffffffffffffff1673ffffffffffffffffffffffffffffffffffffffff16815250509050611c2181600001516115bb565b8160c0019073ffffffffffffffffffffffffffffffffffffffff16908173ffffffffffffffffffffffffffffffffffffffff168152505080838381518110611c92577f4e487b7100000000000000000000000000000000000000000000000000000000600052603260045260246000fd5b6020026020010181905250508080611ca990615046565b915050611977565b505b8091505090565b6060611cc582612bdd565b611d04576040517f08c379a0000000000000000000000000000000000000000000000000000000008152600401611cfb90614c8a565b60405180910390fd5b6000611d0e61372c565b90506000815111611d2e5760405180602001604052806000815250611d59565b80611d3884613743565b604051602001611d4992919061491a565b6040516020818303038152906040525b915050919050565b6060600060098054905011156129e45760005b60098054905081101561269e576000600a600060098481548110611dc1577f4e487b7100000000000000000000000000000000000000000000000000000000600052603260045260246000fd5b9060005260206000200154815260200190815260200160002080549050111561268b576000600a600060098481548110611e24577f4e487b7100000000000000000000000000000000000000000000000000000000600052603260045260246000fd5b90600052602060002001548152602001908152602001600020805480602002602001604051908101604052809291908181526020018280548015611e8757602002820191906000526020600020905b815481526020019060010190808311611e73575b5050505050905060005b81518110156126885760006008600060098681548110611eda577f4e487b7100000000000000000000000000000000000000000000000000000000600052603260045260246000fd5b906000526020600020015481526020019081526020016000206000848481518110611f2e577f4e487b7100000000000000000000000000000000000000000000000000000000600052603260045260246000fd5b602002602001015181526020019081526020016000206040518060c001604052908160008201548152602001600182015481526020016002820160009054906101000a900460ff16151515158152602001600382015481526020016004820160009054906101000a900473ffffffffffffffffffffffffffffffffffffffff1673ffffffffffffffffffffffffffffffffffffffff1673ffffffffffffffffffffffffffffffffffffffff168152602001600582016040518060e00160405290816000820154815260200160018201805461200890614fe3565b80601f016020809104026020016040519081016040528092919081815260200182805461203490614fe3565b80156120815780601f1061205657610100808354040283529160200191612081565b820191906000526020600020905b81548152906001019060200180831161206457829003601f168201915b5050505050815260200160028201805461209a90614fe3565b80601f01602080910402602001604051908101604052809291908181526020018280546120c690614fe3565b80156121135780601f106120e857610100808354040283529160200191612113565b820191906000526020600020905b8154815290600101906020018083116120f657829003601f168201915b5050505050815260200160038201805461212c90614fe3565b80601f016020809104026020016040519081016040528092919081815260200182805461215890614fe3565b80156121a55780601f1061217a576101008083540402835291602001916121a5565b820191906000526020600020905b81548152906001019060200180831161218857829003601f168201915b5050505050815260200160048201548152602001600582015481526020016006820160009054906101000a900473ffffffffffffffffffffffffffffffffffffffff1673ffffffffffffffffffffffffffffffffffffffff1673ffffffffffffffffffffffffffffffffffffffff1681525050815250509050612226612c49565b73ffffffffffffffffffffffffffffffffffffffff1661224982600001516115bb565b73ffffffffffffffffffffffffffffffffffffffff1614156126745760076000600986815481106122a3577f4e487b7100000000000000000000000000000000000000000000000000000000600052603260045260246000fd5b906000526020600020015481526020019081526020016000206040518060e0016040529081600082015481526020016001820180546122e190614fe3565b80601f016020809104026020016040519081016040528092919081815260200182805461230d90614fe3565b801561235a5780601f1061232f5761010080835404028352916020019161235a565b820191906000526020600020905b81548152906001019060200180831161233d57829003601f168201915b5050505050815260200160028201805461237390614fe3565b80601f016020809104026020016040519081016040528092919081815260200182805461239f90614fe3565b80156123ec5780601f106123c1576101008083540402835291602001916123ec565b820191906000526020600020905b8154815290600101906020018083116123cf57829003601f168201915b5050505050815260200160038201805461240590614fe3565b80601f016020809104026020016040519081016040528092919081815260200182805461243190614fe3565b801561247e5780601f106124535761010080835404028352916020019161247e565b820191906000526020600020905b81548152906001019060200180831161246157829003601f168201915b5050505050815260200160048201548152602001600582015481526020016006820160009054906101000a900473ffffffffffffffffffffffffffffffffffffffff1673ffffffffffffffffffffffffffffffffffffffff1673ffffffffffffffffffffffffffffffffffffffff16815250508160a00181905250600c8190806001815401808255809150506001900390600052602060002090600c0201600090919091909150600082015181600001556020820151816001015560408201518160020160006101000a81548160ff0219169083151502179055506060820151816003015560808201518160040160006101000a81548173ffffffffffffffffffffffffffffffffffffffff021916908373ffffffffffffffffffffffffffffffffffffffff16021790555060a0820151816005016000820151816000015560208201518160010190805190602001906125d9929190613b1c565b5060408201518160020190805190602001906125f6929190613b1c565b506060820151816003019080519060200190612613929190613b1c565b506080820151816004015560a0820151816005015560c08201518160060160006101000a81548173ffffffffffffffffffffffffffffffffffffffff021916908373ffffffffffffffffffffffffffffffffffffffff160217905550505050505b50808061268090615046565b915050611e91565b50505b808061269690615046565b915050611d74565b506000600c8054905011156129e357600c805480602002602001604051908101604052809291908181526020016000905b828210156129ce57838290600052602060002090600c02016040518060c001604052908160008201548152602001600182015481526020016002820160009054906101000a900460ff16151515158152602001600382015481526020016004820160009054906101000a900473ffffffffffffffffffffffffffffffffffffffff1673ffffffffffffffffffffffffffffffffffffffff1673ffffffffffffffffffffffffffffffffffffffff168152602001600582016040518060e0016040529081600082015481526020016001820180546127ab90614fe3565b80601f01602080910402602001604051908101604052809291908181526020018280546127d790614fe3565b80156128245780601f106127f957610100808354040283529160200191612824565b820191906000526020600020905b81548152906001019060200180831161280757829003601f168201915b5050505050815260200160028201805461283d90614fe3565b80601f016020809104026020016040519081016040528092919081815260200182805461286990614fe3565b80156128b65780601f1061288b576101008083540402835291602001916128b6565b820191906000526020600020905b81548152906001019060200180831161289957829003601f168201915b505050505081526020016003820180546128cf90614fe3565b80601f01602080910402602001604051908101604052809291908181526020018280546128fb90614fe3565b80156129485780601f1061291d57610100808354040283529160200191612948565b820191906000526020600020905b81548152906001019060200180831161292b57829003601f168201915b5050505050815260200160048201548152602001600582015481526020016006820160009054906101000a900473ffffffffffffffffffffffffffffffffffffffff1673ffffffffffffffffffffffffffffffffffffffff1673ffffffffffffffffffffffffffffffffffffffff168152505081525050815260200190600101906126cf565b505050509050600c60006129e29190613c49565b5b5b90565b6000600560008473ffffffffffffffffffffffffffffffffffffffff1673ffffffffffffffffffffffffffffffffffffffff16815260200190815260200160002060008373ffffffffffffffffffffffffffffffffffffffff1673ffffffffffffffffffffffffffffffffffffffff16815260200190815260200160002060009054906101000a900460ff16905092915050565b612a83612c49565b73ffffffffffffffffffffffffffffffffffffffff16612aa16117ad565b73ffffffffffffffffffffffffffffffffffffffff1614612af7576040517f08c379a0000000000000000000000000000000000000000000000000000000008152600401612aee90614c6a565b60405180910390fd5b600073ffffffffffffffffffffffffffffffffffffffff168173ffffffffffffffffffffffffffffffffffffffff161415612b67576040517f08c379a0000000000000000000000000000000000000000000000000000000008152600401612b5e90614aca565b60405180910390fd5b612b708161349d565b50565b60007f01ffc9a7000000000000000000000000000000000000000000000000000000007bffffffffffffffffffffffffffffffffffffffffffffffffffffffff1916827bffffffffffffffffffffffffffffffffffffffffffffffffffffffff1916149050919050565b60008073ffffffffffffffffffffffffffffffffffffffff166002600084815260200190815260200160002060009054906101000a900473ffffffffffffffffffffffffffffffffffffffff1673ffffffffffffffffffffffffffffffffffffffff1614159050919050565b600033905090565b816004600083815260200190815260200160002060006101000a81548173ffffffffffffffffffffffffffffffffffffffff021916908373ffffffffffffffffffffffffffffffffffffffff160217905550808273ffffffffffffffffffffffffffffffffffffffff16612cc4836115bb565b73ffffffffffffffffffffffffffffffffffffffff167f8c5be1e5ebec7d5bd14f71427d1e84f3dd0314c0f7b2291e5b200ac8c7c3b92560405160405180910390a45050565b6000612d1582612bdd565b612d54576040517f08c379a0000000000000000000000000000000000000000000000000000000008152600401612d4b90614b6a565b60405180910390fd5b6000612d5f836115bb565b90508073ffffffffffffffffffffffffffffffffffffffff168473ffffffffffffffffffffffffffffffffffffffff161480612dce57508373ffffffffffffffffffffffffffffffffffffffff16612db6846106d5565b73ffffffffffffffffffffffffffffffffffffffff16145b80612ddf5750612dde81856129e7565b5b91505092915050565b8273ffffffffffffffffffffffffffffffffffffffff16612e08826115bb565b73ffffffffffffffffffffffffffffffffffffffff1614612e5e576040517f08c379a0000000000000000000000000000000000000000000000000000000008152600401612e5590614aea565b60405180910390fd5b600073ffffffffffffffffffffffffffffffffffffffff168273ffffffffffffffffffffffffffffffffffffffff161415612ece576040517f08c379a0000000000000000000000000000000000000000000000000000000008152600401612ec590614b2a565b60405180910390fd5b612ed98383836138f0565b612ee4600082612c51565b6001600360008573ffffffffffffffffffffffffffffffffffffffff1673ffffffffffffffffffffffffffffffffffffffff1681526020019081526020016000206000828254612f349190614ef9565b925050819055506001600360008473ffffffffffffffffffffffffffffffffffffffff1673ffffffffffffffffffffffffffffffffffffffff1681526020019081526020016000206000828254612f8b9190614e72565b92505081905550816002600083815260200190815260200160002060006101000a81548173ffffffffffffffffffffffffffffffffffffffff021916908373ffffffffffffffffffffffffffffffffffffffff160217905550808273ffffffffffffffffffffffffffffffffffffffff168473ffffffffffffffffffffffffffffffffffffffff167fddf252ad1be2c89b69c2b068fc378daa952ba7f163c4a11628f55a4df523b3ef60405160405180910390a461304a838383613900565b505050565b600034905090565b600082600060076000838152602001908152602001600020600101805461307d90614fe3565b9050116130bf576040517f08c379a00000000000000000000000000000000000000000000000000000000081526004016130b690614cca565b60405180910390fd5b6000600b600081546130d090615046565b91905081905590506130e0613bf6565b6000806040518060c00160405280858152602001600760008b81526020019081526020016000206005015481526020016000151581526020018881526020018373ffffffffffffffffffffffffffffffffffffffff16815260200184815250905080600860008a81526020019081526020016000206000868152602001908152602001600020600082015181600001556020820151816001015560408201518160020160006101000a81548160ff0219169083151502179055506060820151816003015560808201518160040160006101000a81548173ffffffffffffffffffffffffffffffffffffffff021916908373ffffffffffffffffffffffffffffffffffffffff16021790555060a08201518160050160008201518160000155602082015181600101908051906020019061321a929190613b1c565b506040820151816002019080519060200190613237929190613b1c565b506060820151816003019080519060200190613254929190613b1c565b506080820151816004015560a0820151816005015560c08201518160060160006101000a81548173ffffffffffffffffffffffffffffffffffffffff021916908373ffffffffffffffffffffffffffffffffffffffff1602179055505050905050839550505050505092915050565b600073ffffffffffffffffffffffffffffffffffffffff168273ffffffffffffffffffffffffffffffffffffffff161415613333576040517f08c379a000000000000000000000000000000000000000000000000000000000815260040161332a90614c2a565b60405180910390fd5b61333c81612bdd565b1561337c576040517f08c379a000000000000000000000000000000000000000000000000000000000815260040161337390614b0a565b60405180910390fd5b613388600083836138f0565b6001600360008473ffffffffffffffffffffffffffffffffffffffff1673ffffffffffffffffffffffffffffffffffffffff16815260200190815260200160002060008282546133d89190614e72565b92505081905550816002600083815260200190815260200160002060006101000a81548173ffffffffffffffffffffffffffffffffffffffff021916908373ffffffffffffffffffffffffffffffffffffffff160217905550808273ffffffffffffffffffffffffffffffffffffffff16600073ffffffffffffffffffffffffffffffffffffffff167fddf252ad1be2c89b69c2b068fc378daa952ba7f163c4a11628f55a4df523b3ef60405160405180910390a461349960008383613900565b5050565b6000600660019054906101000a900473ffffffffffffffffffffffffffffffffffffffff16905081600660016101000a81548173ffffffffffffffffffffffffffffffffffffffff021916908373ffffffffffffffffffffffffffffffffffffffff1602179055508173ffffffffffffffffffffffffffffffffffffffff168173ffffffffffffffffffffffffffffffffffffffff167f8be0079c531659141344cd1fd0a4f28419497f9722a3daafe3b4186f6b6457e060405160405180910390a35050565b8173ffffffffffffffffffffffffffffffffffffffff168373ffffffffffffffffffffffffffffffffffffffff1614156135d2576040517f08c379a00000000000000000000000000000000000000000000000000000000081526004016135c990614b4a565b60405180910390fd5b80600560008573ffffffffffffffffffffffffffffffffffffffff1673ffffffffffffffffffffffffffffffffffffffff16815260200190815260200160002060008473ffffffffffffffffffffffffffffffffffffffff1673ffffffffffffffffffffffffffffffffffffffff16815260200190815260200160002060006101000a81548160ff0219169083151502179055508173ffffffffffffffffffffffffffffffffffffffff168373ffffffffffffffffffffffffffffffffffffffff167f17307eab39ab6107e8899845ad3d59bd9653f200f220920489ca2b5937696c31836040516136c39190614a2d565b60405180910390a3505050565b6136db848484612de8565b6136e784848484613905565b613726576040517f08c379a000000000000000000000000000000000000000000000000000000000815260040161371d90614aaa565b60405180910390fd5b50505050565b606060405180602001604052806000815250905090565b6060600082141561378b576040518060400160405280600181526020017f300000000000000000000000000000000000000000000000000000000000000081525090506138eb565b600082905060005b600082146137bd5780806137a690615046565b915050600a826137b69190614ec8565b9150613793565b60008167ffffffffffffffff8111156137ff577f4e487b7100000000000000000000000000000000000000000000000000000000600052604160045260246000fd5b6040519080825280601f01601f1916602001820160405280156138315781602001600182028036833780820191505090505b5090505b600085146138e45760018261384a9190614ef9565b9150600a85613859919061508f565b60306138659190614e72565b60f81b8183815181106138a1577f4e487b7100000000000000000000000000000000000000000000000000000000600052603260045260246000fd5b60200101907effffffffffffffffffffffffffffffffffffffffffffffffffffffffffffff1916908160001a905350600a856138dd9190614ec8565b9450613835565b8093505050505b919050565b6138fb838383613a9c565b505050565b505050565b60006139268473ffffffffffffffffffffffffffffffffffffffff16613af4565b15613a8f578373ffffffffffffffffffffffffffffffffffffffff1663150b7a0261394f612c49565b8786866040518563ffffffff1660e01b8152600401613971949392919061499d565b602060405180830381600087803b15801561398b57600080fd5b505af19250505080156139bc57506040513d601f19601f820116820180604052508101906139b991906141ab565b60015b613a3f573d80600081146139ec576040519150601f19603f3d011682016040523d82523d6000602084013e6139f1565b606091505b50600081511415613a37576040517f08c379a0000000000000000000000000000000000000000000000000000000008152600401613a2e90614aaa565b60405180910390fd5b805181602001fd5b63150b7a0260e01b7bffffffffffffffffffffffffffffffffffffffffffffffffffffffff1916817bffffffffffffffffffffffffffffffffffffffffffffffffffffffff191614915050613a94565b600190505b949350505050565b613aa7838383613b17565b613aaf6115a4565b15613aef576040517f08c379a0000000000000000000000000000000000000000000000000000000008152600401613ae690614a8a565b60405180910390fd5b505050565b6000808273ffffffffffffffffffffffffffffffffffffffff163b119050919050565b505050565b828054613b2890614fe3565b90600052602060002090601f016020900481019282613b4a5760008555613b91565b82601f10613b6357805160ff1916838001178555613b91565b82800160010185558215613b91579182015b82811115613b90578251825591602001919060010190613b75565b5b509050613b9e9190613c6d565b5090565b6040518060c00160405280600081526020016000815260200160001515815260200160008152602001600073ffffffffffffffffffffffffffffffffffffffff168152602001613bf0613bf6565b81525090565b6040518060e00160405280600081526020016060815260200160608152602001606081526020016000815260200160008152602001600073ffffffffffffffffffffffffffffffffffffffff1681525090565b50805460008255600c0290600052602060002090810190613c6a9190613c8a565b50565b5b80821115613c86576000816000905550600101613c6e565b5090565b5b80821115613d665760008082016000905560018201600090556002820160006101000a81549060ff021916905560038201600090556004820160006101000a81549073ffffffffffffffffffffffffffffffffffffffff021916905560058201600080820160009055600182016000613d049190613d6a565b600282016000613d149190613d6a565b600382016000613d249190613d6a565b600482016000905560058201600090556006820160006101000a81549073ffffffffffffffffffffffffffffffffffffffff0219169055505050600c01613c8b565b5090565b508054613d7690614fe3565b6000825580601f10613d885750613da7565b601f016020900490600052602060002090810190613da69190613c6d565b5b50565b6000613dbd613db884614d4a565b614d25565b905082815260208101848484011115613dd557600080fd5b613de0848285614fa1565b509392505050565b6000613dfb613df684614d7b565b614d25565b905082815260208101848484011115613e1357600080fd5b613e1e848285614fa1565b509392505050565b600081359050613e358161572a565b92915050565b600081359050613e4a81615741565b92915050565b600081359050613e5f81615758565b92915050565b600081519050613e7481615758565b92915050565b600082601f830112613e8b57600080fd5b8135613e9b848260208601613daa565b91505092915050565b600082601f830112613eb557600080fd5b8135613ec5848260208601613de8565b91505092915050565b600060e08284031215613ee057600080fd5b613eea60e0614d25565b90506000613efa84828501613fc6565b600083015250602082013567ffffffffffffffff811115613f1a57600080fd5b613f2684828501613ea4565b602083015250604082013567ffffffffffffffff811115613f4657600080fd5b613f5284828501613ea4565b604083015250606082013567ffffffffffffffff811115613f7257600080fd5b613f7e84828501613ea4565b6060830152506080613f9284828501613fc6565b60808301525060a0613fa684828501613fc6565b60a08301525060c0613fba84828501613e26565b60c08301525092915050565b600081359050613fd58161576f565b92915050565b600060208284031215613fed57600080fd5b6000613ffb84828501613e26565b91505092915050565b6000806040838503121561401757600080fd5b600061402585828601613e26565b925050602061403685828601613e26565b9150509250929050565b60008060006060848603121561405557600080fd5b600061406386828701613e26565b935050602061407486828701613e26565b925050604061408586828701613fc6565b9150509250925092565b600080600080608085870312156140a557600080fd5b60006140b387828801613e26565b94505060206140c487828801613e26565b93505060406140d587828801613fc6565b925050606085013567ffffffffffffffff8111156140f257600080fd5b6140fe87828801613e7a565b91505092959194509250565b6000806040838503121561411d57600080fd5b600061412b85828601613e26565b925050602061413c85828601613e3b565b9150509250929050565b6000806040838503121561415957600080fd5b600061416785828601613e26565b925050602061417885828601613fc6565b9150509250929050565b60006020828403121561419457600080fd5b60006141a284828501613e50565b91505092915050565b6000602082840312156141bd57600080fd5b60006141cb84828501613e65565b91505092915050565b6000602082840312156141e657600080fd5b600082013567ffffffffffffffff81111561420057600080fd5b61420c84828501613ece565b91505092915050565b60006020828403121561422757600080fd5b600061423584828501613fc6565b91505092915050565b6000806040838503121561425157600080fd5b600061425f85828601613fc6565b925050602061427085828601613fc6565b9150509250929050565b600061428683836147c9565b905092915050565b600061429a8383614873565b905092915050565b6142ab81614f2d565b82525050565b6142ba81614f2d565b82525050565b60006142cb82614dcc565b6142d58185614e12565b9350836020820285016142e785614dac565b8060005b858110156143235784840389528151614304858261427a565b945061430f83614df8565b925060208a019950506001810190506142eb565b50829750879550505050505092915050565b600061434082614dd7565b61434a8185614e23565b93508360208202850161435c85614dbc565b8060005b858110156143985784840389528151614379858261428e565b945061438483614e05565b925060208a01995050600181019050614360565b50829750879550505050505092915050565b6143b381614f3f565b82525050565b6143c281614f3f565b82525050565b60006143d382614de2565b6143dd8185614e34565b93506143ed818560208601614fb0565b6143f68161517c565b840191505092915050565b600061440c82614ded565b6144168185614e45565b9350614426818560208601614fb0565b61442f8161517c565b840191505092915050565b600061444582614ded565b61444f8185614e56565b935061445f818560208601614fb0565b6144688161517c565b840191505092915050565b600061447e82614ded565b6144888185614e67565b9350614498818560208601614fb0565b80840191505092915050565b60006144b1601083614e56565b91506144bc8261518d565b602082019050919050565b60006144d4602b83614e56565b91506144df826151b6565b604082019050919050565b60006144f7603283614e56565b915061450282615205565b604082019050919050565b600061451a602683614e56565b915061452582615254565b604082019050919050565b600061453d602583614e56565b9150614548826152a3565b604082019050919050565b6000614560601c83614e56565b915061456b826152f2565b602082019050919050565b6000614583602483614e56565b915061458e8261531b565b604082019050919050565b60006145a6601983614e56565b91506145b18261536a565b602082019050919050565b60006145c9602c83614e56565b91506145d482615393565b604082019050919050565b60006145ec601383614e56565b91506145f7826153e2565b602082019050919050565b600061460f601083614e56565b915061461a8261540b565b602082019050919050565b6000614632603883614e56565b915061463d82615434565b604082019050919050565b6000614655602a83614e56565b915061466082615483565b604082019050919050565b6000614678602983614e56565b9150614683826154d2565b604082019050919050565b600061469b602083614e56565b91506146a682615521565b602082019050919050565b60006146be602c83614e56565b91506146c98261554a565b604082019050919050565b60006146e1602083614e56565b91506146ec82615599565b602082019050919050565b6000614704602f83614e56565b915061470f826155c2565b604082019050919050565b6000614727601c83614e67565b915061473282615611565b601c82019050919050565b600061474a602183614e56565b91506147558261563a565b604082019050919050565b600061476d601483614e67565b915061477882615689565b601482019050919050565b6000614790601683614e56565b915061479b826156b2565b602082019050919050565b60006147b3603183614e56565b91506147be826156db565b604082019050919050565b600060e0830160008301516147e160008601826148fc565b50602083015184820360208601526147f98282614401565b915050604083015184820360408601526148138282614401565b9150506060830151848203606086015261482d8282614401565b915050608083015161484260808601826148fc565b5060a083015161485560a08601826148fc565b5060c083015161486860c08601826142a2565b508091505092915050565b600060c08301600083015161488b60008601826148fc565b50602083015161489e60208601826148fc565b5060408301516148b160408601826143aa565b5060608301516148c460608601826148fc565b5060808301516148d760808601826142a2565b5060a083015184820360a08601526148ef82826147c9565b9150508091505092915050565b61490581614f97565b82525050565b61491481614f97565b82525050565b60006149268285614473565b91506149328284614473565b91508190509392505050565b600061494a8284614473565b91506149558261471a565b915081905092915050565b600061496c8284614473565b915061497782614760565b915081905092915050565b600060208201905061499760008301846142b1565b92915050565b60006080820190506149b260008301876142b1565b6149bf60208301866142b1565b6149cc604083018561490b565b81810360608301526149de81846143c8565b905095945050505050565b60006020820190508181036000830152614a0381846142c0565b905092915050565b60006020820190508181036000830152614a258184614335565b905092915050565b6000602082019050614a4260008301846143b9565b92915050565b60006020820190508181036000830152614a62818461443a565b905092915050565b60006020820190508181036000830152614a83816144a4565b9050919050565b60006020820190508181036000830152614aa3816144c7565b9050919050565b60006020820190508181036000830152614ac3816144ea565b9050919050565b60006020820190508181036000830152614ae38161450d565b9050919050565b60006020820190508181036000830152614b0381614530565b9050919050565b60006020820190508181036000830152614b2381614553565b9050919050565b60006020820190508181036000830152614b4381614576565b9050919050565b60006020820190508181036000830152614b6381614599565b9050919050565b60006020820190508181036000830152614b83816145bc565b9050919050565b60006020820190508181036000830152614ba3816145df565b9050919050565b60006020820190508181036000830152614bc381614602565b9050919050565b60006020820190508181036000830152614be381614625565b9050919050565b60006020820190508181036000830152614c0381614648565b9050919050565b60006020820190508181036000830152614c238161466b565b9050919050565b60006020820190508181036000830152614c438161468e565b9050919050565b60006020820190508181036000830152614c63816146b1565b9050919050565b60006020820190508181036000830152614c83816146d4565b9050919050565b60006020820190508181036000830152614ca3816146f7565b9050919050565b60006020820190508181036000830152614cc38161473d565b9050919050565b60006020820190508181036000830152614ce381614783565b9050919050565b60006020820190508181036000830152614d03816147a6565b9050919050565b6000602082019050614d1f600083018461490b565b92915050565b6000614d2f614d40565b9050614d3b8282615015565b919050565b6000604051905090565b600067ffffffffffffffff821115614d6557614d6461514d565b5b614d6e8261517c565b9050602081019050919050565b600067ffffffffffffffff821115614d9657614d9561514d565b5b614d9f8261517c565b9050602081019050919050565b6000819050602082019050919050565b6000819050602082019050919050565b600081519050919050565b600081519050919050565b600081519050919050565b600081519050919050565b6000602082019050919050565b6000602082019050919050565b600082825260208201905092915050565b600082825260208201905092915050565b600082825260208201905092915050565b600082825260208201905092915050565b600082825260208201905092915050565b600081905092915050565b6000614e7d82614f97565b9150614e8883614f97565b9250827fffffffffffffffffffffffffffffffffffffffffffffffffffffffffffffffff03821115614ebd57614ebc6150c0565b5b828201905092915050565b6000614ed382614f97565b9150614ede83614f97565b925082614eee57614eed6150ef565b5b828204905092915050565b6000614f0482614f97565b9150614f0f83614f97565b925082821015614f2257614f216150c0565b5b828203905092915050565b6000614f3882614f77565b9050919050565b60008115159050919050565b60007fffffffff0000000000000000000000000000000000000000000000000000000082169050919050565b600073ffffffffffffffffffffffffffffffffffffffff82169050919050565b6000819050919050565b82818337600083830152505050565b60005b83811015614fce578082015181840152602081019050614fb3565b83811115614fdd576000848401525b50505050565b60006002820490506001821680614ffb57607f821691505b6020821081141561500f5761500e61511e565b5b50919050565b61501e8261517c565b810181811067ffffffffffffffff8211171561503d5761503c61514d565b5b80604052505050565b600061505182614f97565b91507fffffffffffffffffffffffffffffffffffffffffffffffffffffffffffffffff821415615084576150836150c0565b5b600182019050919050565b600061509a82614f97565b91506150a583614f97565b9250826150b5576150b46150ef565b5b828206905092915050565b7f4e487b7100000000000000000000000000000000000000000000000000000000600052601160045260246000fd5b7f4e487b7100000000000000000000000000000000000000000000000000000000600052601260045260246000fd5b7f4e487b7100000000000000000000000000000000000000000000000000000000600052602260045260246000fd5b7f4e487b7100000000000000000000000000000000000000000000000000000000600052604160045260246000fd5b6000601f19601f8301169050919050565b7f4e6f7420656e6f756768206d6f6e657900000000000000000000000000000000600082015250565b7f4552433732315061757361626c653a20746f6b656e207472616e73666572207760008201527f68696c6520706175736564000000000000000000000000000000000000000000602082015250565b7f4552433732313a207472616e7366657220746f206e6f6e20455243373231526560008201527f63656976657220696d706c656d656e7465720000000000000000000000000000602082015250565b7f4f776e61626c653a206e6577206f776e657220697320746865207a65726f206160008201527f6464726573730000000000000000000000000000000000000000000000000000602082015250565b7f4552433732313a207472616e736665722066726f6d20696e636f72726563742060008201527f6f776e6572000000000000000000000000000000000000000000000000000000602082015250565b7f4552433732313a20746f6b656e20616c7265616479206d696e74656400000000600082015250565b7f4552433732313a207472616e7366657220746f20746865207a65726f2061646460008201527f7265737300000000000000000000000000000000000000000000000000000000602082015250565b7f4552433732313a20617070726f766520746f2063616c6c657200000000000000600082015250565b7f4552433732313a206f70657261746f7220717565727920666f72206e6f6e657860008201527f697374656e7420746f6b656e0000000000000000000000000000000000000000602082015250565b7f5469636b657420616c726561647920736f6c6400000000000000000000000000600082015250565b7f5061757361626c653a2070617573656400000000000000000000000000000000600082015250565b7f4552433732313a20617070726f76652063616c6c6572206973206e6f74206f7760008201527f6e6572206e6f7220617070726f76656420666f7220616c6c0000000000000000602082015250565b7f4552433732313a2062616c616e636520717565727920666f7220746865207a6560008201527f726f206164647265737300000000000000000000000000000000000000000000602082015250565b7f4552433732313a206f776e657220717565727920666f72206e6f6e657869737460008201527f656e7420746f6b656e0000000000000000000000000000000000000000000000602082015250565b7f4552433732313a206d696e7420746f20746865207a65726f2061646472657373600082015250565b7f4552433732313a20617070726f76656420717565727920666f72206e6f6e657860008201527f697374656e7420746f6b656e0000000000000000000000000000000000000000602082015250565b7f4f776e61626c653a2063616c6c6572206973206e6f7420746865206f776e6572600082015250565b7f4552433732314d657461646174613a2055524920717565727920666f72206e6f60008201527f6e6578697374656e7420746f6b656e0000000000000000000000000000000000602082015250565b7f2073686f756c642062652067726561746572207468616e207a65726f00000000600082015250565b7f4552433732313a20617070726f76616c20746f2063757272656e74206f776e6560008201527f7200000000000000000000000000000000000000000000000000000000000000602082015250565b7f2073686f756c64206e6f7420626520656d707479000000000000000000000000600082015250565b7f4576656e74206973206e6f7420617661696c61626c6500000000000000000000600082015250565b7f4552433732313a207472616e736665722063616c6c6572206973206e6f74206f60008201527f776e6572206e6f7220617070726f766564000000000000000000000000000000602082015250565b61573381614f2d565b811461573e57600080fd5b50565b61574a81614f3f565b811461575557600080fd5b50565b61576181614f4b565b811461576c57600080fd5b50565b61577881614f97565b811461578357600080fd5b5056fea2646970667358221220370d0b4a99e92e59597fabf879b4279b5569aa49d3efccc1c880666e6930865564736f6c63430008010033",
  "immutableReferences": {},
  "source": "// SPDX-License-Identifier: MIT\npragma solidity ^0.8.0;\n\nimport \"@openzeppelin/contracts/token/ERC721/ERC721.sol\";\nimport \"@openzeppelin/contracts/access/Ownable.sol\";\nimport \"@openzeppelin/contracts/token/ERC721/extensions/ERC721Pausable.sol\";\n\ncontract COCOEvents is ERC721, ERC721Pausable, Ownable {\n    struct Event {\n        uint256 tokenId;\n        string name;\n        string description;\n        string coverImage;\n        uint256 ticketSupply;\n        uint256 ticketPrice;\n        address owner;\n    }\n    struct Ticket {\n        uint256 tokenId;\n        uint256 ticketPrice;\n        bool ticketUsed;\n        uint256 ticketNumber;\n        address owner;\n        Event parentEvent;\n    }\n    mapping(uint256 => Event) private events;\n    mapping(uint256 => mapping(uint256 => Ticket)) private tickets;\n    uint256[] private eventKeys;\n    mapping(uint256 => uint256[]) private ticketKeys;\n    uint256 private tokenId;\n    Ticket[] myTickets;\n\n    constructor() ERC721(\"COCOEvents\", \"COCO\") {}\n\n    event EventCreated(uint256 _eventId);\n    event TicketSold(uint256 _ticketId);\n\n    modifier valueShouldNotBeEmpty(string memory _value, string memory _field) {\n        require(\n            bytes(_value).length > 0,\n            string(abi.encodePacked(_field, \" should not be empty\"))\n        );\n\n        _;\n    }\n\n    modifier valueShouldBeGreaterThanZero(\n        uint256 _value,\n        string memory _field\n    ) {\n        require(\n            _value > 0,\n            string(abi.encodePacked(_field, \" should be greater than zero\"))\n        );\n\n        _;\n    }\n\n    modifier isEventAvailable(uint256 _eventId) {\n        require(\n            bytes(events[_eventId].name).length > 0,\n            \"Event is not available\"\n        );\n\n        _;\n    }\n\n    modifier isTicketAvailable(uint256 _eventId, uint256 _ticketNumber) {\n        bool ticketSold = false;\n        uint256[] memory _ticketKeys = ticketKeys[_eventId];\n\n        if (_ticketKeys.length > 0) {\n            for (uint256 i = 0; i < _ticketKeys.length; i++) {\n                if (\n                    tickets[_eventId][_ticketKeys[i]].ticketNumber ==\n                    _ticketNumber\n                ) {\n                    ticketSold = true;\n                }\n            }\n        }\n\n        require(ticketSold == false, \"Ticket already sold\");\n\n        _;\n    }\n\n    function _msgValue() internal view returns (uint256) {\n        return msg.value;\n    }\n\n    function getAllEvents() public view returns (Event[] memory) {\n        Event[] memory _events = new Event[](eventKeys.length);\n\n        if (eventKeys.length > 0) {\n            for (uint256 i = 0; i < eventKeys.length; i++) {\n                Event memory _event = events[eventKeys[i]];\n                _event.owner = ownerOf(_event.tokenId);\n                _events[i] = _event;\n            }\n        }\n\n        return _events;\n    }\n\n    function createEvent(Event memory _event)\n        public\n        valueShouldNotBeEmpty(_event.name, \"Event Name\")\n        valueShouldNotBeEmpty(_event.description, \"Event Description\")\n        valueShouldBeGreaterThanZero(_event.ticketSupply, \"Ticket Supply\")\n        valueShouldBeGreaterThanZero(_event.ticketPrice, \"Ticket Price\")\n        returns (uint256)\n    {\n        uint256 _tokenId = ++tokenId;\n        address _owner;\n        _event.tokenId = _tokenId;\n        _event.owner = _owner;\n\n        events[_tokenId] = _event;\n\n        eventKeys.push(_tokenId);\n\n        _mint(_msgSender(), _tokenId);\n\n        emit EventCreated(_tokenId);\n\n        return _tokenId;\n    }\n\n    function buyTicket(uint256 _eventId, uint256 _ticketNumber)\n        public\n        payable\n        whenNotPaused\n        isEventAvailable(_eventId)\n        isTicketAvailable(_eventId, _ticketNumber)\n        returns (uint256)\n    {\n        uint256 ticketPrice = events[_eventId].ticketPrice;\n\n        require(_msgValue() >= ticketPrice, \"Not enough money\");\n\n        if (_msgValue() > ticketPrice) {\n            payable(_msgSender()).transfer(_msgValue() - ticketPrice);\n        }\n\n        uint256 _ticketId = _createTicket(_eventId, _ticketNumber);\n        ticketKeys[_eventId].push(_ticketId);\n        _mint(_msgSender(), _ticketId);\n\n        emit TicketSold(_ticketId);\n\n        return _ticketId;\n    }\n\n    function getAllTicketsByEvent(uint256 _eventId)\n        public\n        view\n        isEventAvailable(_eventId)\n        returns (Ticket[] memory)\n    {\n        uint256[] memory _ticketKeys = ticketKeys[_eventId];\n        Ticket[] memory _tickets = new Ticket[](_ticketKeys.length);\n\n        if (_ticketKeys.length > 0) {\n            for (uint256 i = 0; i < _ticketKeys.length; i++) {\n                _tickets[i] = tickets[_eventId][_ticketKeys[i]];\n            }\n        }\n\n        return _tickets;\n    }\n\n    function getMyTickets() public returns (Ticket[] memory _tickets) {\n        if (eventKeys.length > 0) {\n            for (uint256 i = 0; i < eventKeys.length; i++) {\n                if (ticketKeys[eventKeys[i]].length > 0) {\n                    uint256[] memory _ticketKeys = ticketKeys[eventKeys[i]];\n                    for (uint256 j = 0; j < _ticketKeys.length; j++) {\n                        Ticket memory _ticket = tickets[eventKeys[i]][\n                            _ticketKeys[j]\n                        ];\n                        if (ownerOf(_ticket.tokenId) == _msgSender()) {\n                            _ticket.parentEvent = events[eventKeys[i]];\n                            myTickets.push(_ticket);\n                        }\n                    }\n                }\n            }\n            if (myTickets.length > 0) {\n                _tickets = myTickets;\n                delete myTickets;\n            }\n        }\n    }\n\n    function _createTicket(uint256 _eventId, uint256 _ticketNumber)\n        internal\n        isEventAvailable(_eventId)\n        returns (uint256)\n    {\n        uint256 _tokenId = ++tokenId;\n        Event memory _parentEvent;\n        address _owner;\n        Ticket memory _ticket = Ticket({\n            tokenId: _tokenId,\n            ticketPrice: events[_eventId].ticketPrice,\n            ticketUsed: bool(false),\n            ticketNumber: _ticketNumber,\n            owner: _owner,\n            parentEvent: _parentEvent\n        });\n        tickets[_eventId][_tokenId] = _ticket;\n        return _tokenId;\n    }\n\n    function _beforeTokenTransfer(\n        address _from,\n        address _to,\n        uint256 _tokenId\n    ) internal override(ERC721, ERC721Pausable) {\n        super._beforeTokenTransfer(_from, _to, _tokenId);\n    }\n}\n",
  "sourcePath": "D:\\Ranjith\\BlockChain\\coco repo\\coco-events\\contracts\\CocoEvents.sol",
  "compiler": {
    "name": "solc",
    "version": "0.8.1+commit.df193b15.Emscripten.clang"
  },
  "schemaVersion": "3.4.7",
  "updatedAt": "2022-04-25T07:13:47.986Z",
  "networkType": "ethereum",
  "devdoc": {
    "kind": "dev",
    "methods": {
      "approve(address,uint256)": {
        "details": "See {IERC721-approve}."
      },
      "balanceOf(address)": {
        "details": "See {IERC721-balanceOf}."
      },
      "getApproved(uint256)": {
        "details": "See {IERC721-getApproved}."
      },
      "isApprovedForAll(address,address)": {
        "details": "See {IERC721-isApprovedForAll}."
      },
      "name()": {
        "details": "See {IERC721Metadata-name}."
      },
      "owner()": {
        "details": "Returns the address of the current owner."
      },
      "ownerOf(uint256)": {
        "details": "See {IERC721-ownerOf}."
      },
      "paused()": {
        "details": "Returns true if the contract is paused, and false otherwise."
      },
      "renounceOwnership()": {
        "details": "Leaves the contract without owner. It will not be possible to call `onlyOwner` functions anymore. Can only be called by the current owner. NOTE: Renouncing ownership will leave the contract without an owner, thereby removing any functionality that is only available to the owner."
      },
      "safeTransferFrom(address,address,uint256)": {
        "details": "See {IERC721-safeTransferFrom}."
      },
      "safeTransferFrom(address,address,uint256,bytes)": {
        "details": "See {IERC721-safeTransferFrom}."
      },
      "setApprovalForAll(address,bool)": {
        "details": "See {IERC721-setApprovalForAll}."
      },
      "supportsInterface(bytes4)": {
        "details": "See {IERC165-supportsInterface}."
      },
      "symbol()": {
        "details": "See {IERC721Metadata-symbol}."
      },
      "tokenURI(uint256)": {
        "details": "See {IERC721Metadata-tokenURI}."
      },
      "transferFrom(address,address,uint256)": {
        "details": "See {IERC721-transferFrom}."
      },
      "transferOwnership(address)": {
        "details": "Transfers ownership of the contract to a new account (`newOwner`). Can only be called by the current owner."
      }
    },
    "version": 1
  },
  "userdoc": {
    "kind": "user",
    "methods": {},
    "version": 1
  }
}